{
  "_format": "hh-sol-artifact-1",
  "contractName": "Action",
  "sourceName": "contracts/ActionCollectible.sol",
  "abi": [
    {
      "inputs": [],
      "stateMutability": "nonpayable",
      "type": "constructor"
    },
    {
      "anonymous": false,
      "inputs": [
        {
          "indexed": true,
          "internalType": "address",
          "name": "owner",
          "type": "address"
        },
        {
          "indexed": true,
          "internalType": "address",
          "name": "approved",
          "type": "address"
        },
        {
          "indexed": true,
          "internalType": "uint256",
          "name": "tokenId",
          "type": "uint256"
        }
      ],
      "name": "Approval",
      "type": "event"
    },
    {
      "anonymous": false,
      "inputs": [
        {
          "indexed": true,
          "internalType": "address",
          "name": "owner",
          "type": "address"
        },
        {
          "indexed": true,
          "internalType": "address",
          "name": "operator",
          "type": "address"
        },
        {
          "indexed": false,
          "internalType": "bool",
          "name": "approved",
          "type": "bool"
        }
      ],
      "name": "ApprovalForAll",
      "type": "event"
    },
    {
      "anonymous": false,
      "inputs": [
        {
          "indexed": true,
          "internalType": "address",
          "name": "from",
          "type": "address"
        },
        {
          "indexed": true,
          "internalType": "address",
          "name": "to",
          "type": "address"
        },
        {
          "indexed": true,
          "internalType": "uint256",
          "name": "tokenId",
          "type": "uint256"
        }
      ],
      "name": "Transfer",
      "type": "event"
    },
    {
      "inputs": [
        {
          "internalType": "address",
          "name": "to",
          "type": "address"
        },
        {
          "internalType": "uint256",
          "name": "tokenId",
          "type": "uint256"
        }
      ],
      "name": "approve",
      "outputs": [],
      "stateMutability": "nonpayable",
      "type": "function"
    },
    {
      "inputs": [
        {
          "internalType": "address",
          "name": "owner",
          "type": "address"
        }
      ],
      "name": "balanceOf",
      "outputs": [
        {
          "internalType": "uint256",
          "name": "",
          "type": "uint256"
        }
      ],
      "stateMutability": "view",
      "type": "function"
    },
    {
      "inputs": [
        {
          "internalType": "uint256",
          "name": "tokenId",
          "type": "uint256"
        }
      ],
      "name": "getApproved",
      "outputs": [
        {
          "internalType": "address",
          "name": "",
          "type": "address"
        }
      ],
      "stateMutability": "view",
      "type": "function"
    },
    {
      "inputs": [
        {
          "internalType": "address",
          "name": "owner",
          "type": "address"
        },
        {
          "internalType": "address",
          "name": "operator",
          "type": "address"
        }
      ],
      "name": "isApprovedForAll",
      "outputs": [
        {
          "internalType": "bool",
          "name": "",
          "type": "bool"
        }
      ],
      "stateMutability": "view",
      "type": "function"
    },
    {
      "inputs": [
        {
          "internalType": "address",
          "name": "recipient",
          "type": "address"
        },
        {
          "internalType": "string",
          "name": "tokenURI",
          "type": "string"
        }
      ],
      "name": "mint",
      "outputs": [
        {
          "internalType": "uint256",
          "name": "",
          "type": "uint256"
        }
      ],
      "stateMutability": "payable",
      "type": "function"
    },
    {
      "inputs": [],
      "name": "name",
      "outputs": [
        {
          "internalType": "string",
          "name": "",
          "type": "string"
        }
      ],
      "stateMutability": "view",
      "type": "function"
    },
    {
      "inputs": [
        {
          "internalType": "uint256",
          "name": "tokenId",
          "type": "uint256"
        }
      ],
      "name": "ownerOf",
      "outputs": [
        {
          "internalType": "address",
          "name": "",
          "type": "address"
        }
      ],
      "stateMutability": "view",
      "type": "function"
    },
    {
      "inputs": [
        {
          "internalType": "address",
          "name": "from",
          "type": "address"
        },
        {
          "internalType": "address",
          "name": "to",
          "type": "address"
        },
        {
          "internalType": "uint256",
          "name": "tokenId",
          "type": "uint256"
        }
      ],
      "name": "safeTransferFrom",
      "outputs": [],
      "stateMutability": "nonpayable",
      "type": "function"
    },
    {
      "inputs": [
        {
          "internalType": "address",
          "name": "from",
          "type": "address"
        },
        {
          "internalType": "address",
          "name": "to",
          "type": "address"
        },
        {
          "internalType": "uint256",
          "name": "tokenId",
          "type": "uint256"
        },
        {
          "internalType": "bytes",
          "name": "data",
          "type": "bytes"
        }
      ],
      "name": "safeTransferFrom",
      "outputs": [],
      "stateMutability": "nonpayable",
      "type": "function"
    },
    {
      "inputs": [
        {
          "internalType": "address",
          "name": "operator",
          "type": "address"
        },
        {
          "internalType": "bool",
          "name": "approved",
          "type": "bool"
        }
      ],
      "name": "setApprovalForAll",
      "outputs": [],
      "stateMutability": "nonpayable",
      "type": "function"
    },
    {
      "inputs": [
        {
          "internalType": "bytes4",
          "name": "interfaceId",
          "type": "bytes4"
        }
      ],
      "name": "supportsInterface",
      "outputs": [
        {
          "internalType": "bool",
          "name": "",
          "type": "bool"
        }
      ],
      "stateMutability": "view",
      "type": "function"
    },
    {
      "inputs": [],
      "name": "symbol",
      "outputs": [
        {
          "internalType": "string",
          "name": "",
          "type": "string"
        }
      ],
      "stateMutability": "view",
      "type": "function"
    },
    {
      "inputs": [
        {
          "internalType": "uint256",
          "name": "tokenId",
          "type": "uint256"
        }
      ],
      "name": "tokenURI",
      "outputs": [
        {
          "internalType": "string",
          "name": "",
          "type": "string"
        }
      ],
      "stateMutability": "view",
      "type": "function"
    },
    {
      "inputs": [
        {
          "internalType": "address",
          "name": "from",
          "type": "address"
        },
        {
          "internalType": "address",
          "name": "to",
          "type": "address"
        },
        {
          "internalType": "uint256",
          "name": "tokenId",
          "type": "uint256"
        }
      ],
      "name": "transferFrom",
      "outputs": [],
      "stateMutability": "nonpayable",
      "type": "function"
    }
  ],
  "bytecode": "0x60806040526658d15e176280006008553480156200001c57600080fd5b506040518060400160405280600f81526020017f416374696f6e2d5061696e74696e6700000000000000000000000000000000008152506040518060400160405280600681526020017f416374696f6e000000000000000000000000000000000000000000000000000081525081600090816200009a91906200032f565b508060019081620000ac91906200032f565b50505062000416565b600081519050919050565b7f4e487b7100000000000000000000000000000000000000000000000000000000600052604160045260246000fd5b7f4e487b7100000000000000000000000000000000000000000000000000000000600052602260045260246000fd5b600060028204905060018216806200013757607f821691505b6020821081036200014d576200014c620000ef565b5b50919050565b60008190508160005260206000209050919050565b60006020601f8301049050919050565b600082821b905092915050565b600060088302620001b77fffffffffffffffffffffffffffffffffffffffffffffffffffffffffffffffff8262000178565b620001c3868362000178565b95508019841693508086168417925050509392505050565b6000819050919050565b6000819050919050565b6000620002106200020a6200020484620001db565b620001e5565b620001db565b9050919050565b6000819050919050565b6200022c83620001ef565b620002446200023b8262000217565b84845462000185565b825550505050565b600090565b6200025b6200024c565b6200026881848462000221565b505050565b5b8181101562000290576200028460008262000251565b6001810190506200026e565b5050565b601f821115620002df57620002a98162000153565b620002b48462000168565b81016020851015620002c4578190505b620002dc620002d38562000168565b8301826200026d565b50505b505050565b600082821c905092915050565b60006200030460001984600802620002e4565b1980831691505092915050565b60006200031f8383620002f1565b9150826002028217905092915050565b6200033a82620000b5565b67ffffffffffffffff811115620003565762000355620000c0565b5b6200036282546200011e565b6200036f82828562000294565b600060209050601f831160018114620003a7576000841562000392578287015190505b6200039e858262000311565b8655506200040e565b601f198416620003b78662000153565b60005b82811015620003e157848901518255600182019150602085019450602081019050620003ba565b86831015620004015784890151620003fd601f891682620002f1565b8355505b6001600288020188555050505b505050505050565b612e2380620004266000396000f3fe6080604052600436106100dd5760003560e01c806370a082311161007f578063b88d4fde11610059578063b88d4fde146102d0578063c87b56dd146102f9578063d0def52114610336578063e985e9c514610366576100dd565b806370a082311461023f57806395d89b411461027c578063a22cb465146102a7576100dd565b8063095ea7b3116100bb578063095ea7b31461018757806323b872dd146101b057806342842e0e146101d95780636352211e14610202576100dd565b806301ffc9a7146100e257806306fdde031461011f578063081812fc1461014a575b600080fd5b3480156100ee57600080fd5b5061010960048036038101906101049190611be9565b6103a3565b6040516101169190611c31565b60405180910390f35b34801561012b57600080fd5b50610134610485565b6040516101419190611cdc565b60405180910390f35b34801561015657600080fd5b50610171600480360381019061016c9190611d34565b610517565b60405161017e9190611da2565b60405180910390f35b34801561019357600080fd5b506101ae60048036038101906101a99190611de9565b61055d565b005b3480156101bc57600080fd5b506101d760048036038101906101d29190611e29565b610674565b005b3480156101e557600080fd5b5061020060048036038101906101fb9190611e29565b6106d4565b005b34801561020e57600080fd5b5061022960048036038101906102249190611d34565b6106f4565b6040516102369190611da2565b60405180910390f35b34801561024b57600080fd5b5061026660048036038101906102619190611e7c565b61077a565b6040516102739190611eb8565b60405180910390f35b34801561028857600080fd5b50610291610831565b60405161029e9190611cdc565b60405180910390f35b3480156102b357600080fd5b506102ce60048036038101906102c99190611eff565b6108c3565b005b3480156102dc57600080fd5b506102f760048036038101906102f29190612074565b6108d9565b005b34801561030557600080fd5b50610320600480360381019061031b9190611d34565b61093b565b60405161032d9190611cdc565b60405180910390f35b610350600480360381019061034b9190612198565b61094d565b60405161035d9190611eb8565b60405180910390f35b34801561037257600080fd5b5061038d600480360381019061038891906121f4565b6109ca565b60405161039a9190611c31565b60405180910390f35b60007f80ac58cd000000000000000000000000000000000000000000000000000000007bffffffffffffffffffffffffffffffffffffffffffffffffffffffff1916827bffffffffffffffffffffffffffffffffffffffffffffffffffffffff1916148061046e57507f5b5e139f000000000000000000000000000000000000000000000000000000007bffffffffffffffffffffffffffffffffffffffffffffffffffffffff1916827bffffffffffffffffffffffffffffffffffffffffffffffffffffffff1916145b8061047e575061047d82610a5e565b5b9050919050565b60606000805461049490612263565b80601f01602080910402602001604051908101604052809291908181526020018280546104c090612263565b801561050d5780601f106104e25761010080835404028352916020019161050d565b820191906000526020600020905b8154815290600101906020018083116104f057829003601f168201915b5050505050905090565b600061052282610ac8565b6004600083815260200190815260200160002060009054906101000a900473ffffffffffffffffffffffffffffffffffffffff169050919050565b6000610568826106f4565b90508073ffffffffffffffffffffffffffffffffffffffff168373ffffffffffffffffffffffffffffffffffffffff16036105d8576040517f08c379a00000000000000000000000000000000000000000000000000000000081526004016105cf90612306565b60405180910390fd5b8073ffffffffffffffffffffffffffffffffffffffff166105f7610b13565b73ffffffffffffffffffffffffffffffffffffffff161480610626575061062581610620610b13565b6109ca565b5b610665576040517f08c379a000000000000000000000000000000000000000000000000000000000815260040161065c90612398565b60405180910390fd5b61066f8383610b1b565b505050565b61068561067f610b13565b82610bd4565b6106c4576040517f08c379a00000000000000000000000000000000000000000000000000000000081526004016106bb9061242a565b60405180910390fd5b6106cf838383610c69565b505050565b6106ef838383604051806020016040528060008152506108d9565b505050565b60008061070083610f62565b9050600073ffffffffffffffffffffffffffffffffffffffff168173ffffffffffffffffffffffffffffffffffffffff1603610771576040517f08c379a000000000000000000000000000000000000000000000000000000000815260040161076890612496565b60405180910390fd5b80915050919050565b60008073ffffffffffffffffffffffffffffffffffffffff168273ffffffffffffffffffffffffffffffffffffffff16036107ea576040517f08c379a00000000000000000000000000000000000000000000000000000000081526004016107e190612528565b60405180910390fd5b600360008373ffffffffffffffffffffffffffffffffffffffff1673ffffffffffffffffffffffffffffffffffffffff168152602001908152602001600020549050919050565b60606001805461084090612263565b80601f016020809104026020016040519081016040528092919081815260200182805461086c90612263565b80156108b95780601f1061088e576101008083540402835291602001916108b9565b820191906000526020600020905b81548152906001019060200180831161089c57829003601f168201915b5050505050905090565b6108d56108ce610b13565b8383610f9f565b5050565b6108ea6108e4610b13565b83610bd4565b610929576040517f08c379a00000000000000000000000000000000000000000000000000000000081526004016109209061242a565b60405180910390fd5b6109358484848461110b565b50505050565b606061094682611167565b9050919050565b6000600854341015610994576040517f08c379a000000000000000000000000000000000000000000000000000000000815260040161098b906125ba565b60405180910390fd5b61099e6007611279565b60006109aa600761128f565b90506109b6848261129d565b6109c081846112bb565b8091505092915050565b6000600560008473ffffffffffffffffffffffffffffffffffffffff1673ffffffffffffffffffffffffffffffffffffffff16815260200190815260200160002060008373ffffffffffffffffffffffffffffffffffffffff1673ffffffffffffffffffffffffffffffffffffffff16815260200190815260200160002060009054906101000a900460ff16905092915050565b60007f01ffc9a7000000000000000000000000000000000000000000000000000000007bffffffffffffffffffffffffffffffffffffffffffffffffffffffff1916827bffffffffffffffffffffffffffffffffffffffffffffffffffffffff1916149050919050565b610ad181611328565b610b10576040517f08c379a0000000000000000000000000000000000000000000000000000000008152600401610b0790612496565b60405180910390fd5b50565b600033905090565b816004600083815260200190815260200160002060006101000a81548173ffffffffffffffffffffffffffffffffffffffff021916908373ffffffffffffffffffffffffffffffffffffffff160217905550808273ffffffffffffffffffffffffffffffffffffffff16610b8e836106f4565b73ffffffffffffffffffffffffffffffffffffffff167f8c5be1e5ebec7d5bd14f71427d1e84f3dd0314c0f7b2291e5b200ac8c7c3b92560405160405180910390a45050565b600080610be0836106f4565b90508073ffffffffffffffffffffffffffffffffffffffff168473ffffffffffffffffffffffffffffffffffffffff161480610c225750610c2181856109ca565b5b80610c6057508373ffffffffffffffffffffffffffffffffffffffff16610c4884610517565b73ffffffffffffffffffffffffffffffffffffffff16145b91505092915050565b8273ffffffffffffffffffffffffffffffffffffffff16610c89826106f4565b73ffffffffffffffffffffffffffffffffffffffff1614610cdf576040517f08c379a0000000000000000000000000000000000000000000000000000000008152600401610cd69061264c565b60405180910390fd5b600073ffffffffffffffffffffffffffffffffffffffff168273ffffffffffffffffffffffffffffffffffffffff1603610d4e576040517f08c379a0000000000000000000000000000000000000000000000000000000008152600401610d45906126de565b60405180910390fd5b610d5b8383836001611369565b8273ffffffffffffffffffffffffffffffffffffffff16610d7b826106f4565b73ffffffffffffffffffffffffffffffffffffffff1614610dd1576040517f08c379a0000000000000000000000000000000000000000000000000000000008152600401610dc89061264c565b60405180910390fd5b6004600082815260200190815260200160002060006101000a81549073ffffffffffffffffffffffffffffffffffffffff02191690556001600360008573ffffffffffffffffffffffffffffffffffffffff1673ffffffffffffffffffffffffffffffffffffffff168152602001908152602001600020600082825403925050819055506001600360008473ffffffffffffffffffffffffffffffffffffffff1673ffffffffffffffffffffffffffffffffffffffff16815260200190815260200160002060008282540192505081905550816002600083815260200190815260200160002060006101000a81548173ffffffffffffffffffffffffffffffffffffffff021916908373ffffffffffffffffffffffffffffffffffffffff160217905550808273ffffffffffffffffffffffffffffffffffffffff168473ffffffffffffffffffffffffffffffffffffffff167fddf252ad1be2c89b69c2b068fc378daa952ba7f163c4a11628f55a4df523b3ef60405160405180910390a4610f5d838383600161148f565b505050565b60006002600083815260200190815260200160002060009054906101000a900473ffffffffffffffffffffffffffffffffffffffff169050919050565b8173ffffffffffffffffffffffffffffffffffffffff168373ffffffffffffffffffffffffffffffffffffffff160361100d576040517f08c379a00000000000000000000000000000000000000000000000000000000081526004016110049061274a565b60405180910390fd5b80600560008573ffffffffffffffffffffffffffffffffffffffff1673ffffffffffffffffffffffffffffffffffffffff16815260200190815260200160002060008473ffffffffffffffffffffffffffffffffffffffff1673ffffffffffffffffffffffffffffffffffffffff16815260200190815260200160002060006101000a81548160ff0219169083151502179055508173ffffffffffffffffffffffffffffffffffffffff168373ffffffffffffffffffffffffffffffffffffffff167f17307eab39ab6107e8899845ad3d59bd9653f200f220920489ca2b5937696c31836040516110fe9190611c31565b60405180910390a3505050565b611116848484610c69565b61112284848484611495565b611161576040517f08c379a0000000000000000000000000000000000000000000000000000000008152600401611158906127dc565b60405180910390fd5b50505050565b606061117282610ac8565b600060066000848152602001908152602001600020805461119290612263565b80601f01602080910402602001604051908101604052809291908181526020018280546111be90612263565b801561120b5780601f106111e05761010080835404028352916020019161120b565b820191906000526020600020905b8154815290600101906020018083116111ee57829003601f168201915b50505050509050600061121c61161c565b90506000815103611231578192505050611274565b60008251111561126657808260405160200161124e929190612838565b60405160208183030381529060405292505050611274565b61126f84611659565b925050505b919050565b6001816000016000828254019250508190555050565b600081600001549050919050565b6112b78282604051806020016040528060008152506116c1565b5050565b6112c482611328565b611303576040517f08c379a00000000000000000000000000000000000000000000000000000000081526004016112fa906128ce565b60405180910390fd5b806006600084815260200190815260200160002090816113239190612a9a565b505050565b60008073ffffffffffffffffffffffffffffffffffffffff1661134a83610f62565b73ffffffffffffffffffffffffffffffffffffffff1614159050919050565b600181111561148957600073ffffffffffffffffffffffffffffffffffffffff168473ffffffffffffffffffffffffffffffffffffffff16146113fd5780600360008673ffffffffffffffffffffffffffffffffffffffff1673ffffffffffffffffffffffffffffffffffffffff16815260200190815260200160002060008282546113f59190612b9b565b925050819055505b600073ffffffffffffffffffffffffffffffffffffffff168373ffffffffffffffffffffffffffffffffffffffff16146114885780600360008573ffffffffffffffffffffffffffffffffffffffff1673ffffffffffffffffffffffffffffffffffffffff16815260200190815260200160002060008282546114809190612bcf565b925050819055505b5b50505050565b50505050565b60006114b68473ffffffffffffffffffffffffffffffffffffffff1661171c565b1561160f578373ffffffffffffffffffffffffffffffffffffffff1663150b7a026114df610b13565b8786866040518563ffffffff1660e01b81526004016115019493929190612c58565b6020604051808303816000875af192505050801561153d57506040513d601f19601f8201168201806040525081019061153a9190612cb9565b60015b6115bf573d806000811461156d576040519150601f19603f3d011682016040523d82523d6000602084013e611572565b606091505b5060008151036115b7576040517f08c379a00000000000000000000000000000000000000000000000000000000081526004016115ae906127dc565b60405180910390fd5b805181602001fd5b63150b7a0260e01b7bffffffffffffffffffffffffffffffffffffffffffffffffffffffff1916817bffffffffffffffffffffffffffffffffffffffffffffffffffffffff191614915050611614565b600190505b949350505050565b60606040518060400160405280601581526020017f68747470733a2f2f697066732e696f2f697066732f0000000000000000000000815250905090565b606061166482610ac8565b600061166e61161c565b9050600081511161168e57604051806020016040528060008152506116b9565b806116988461173f565b6040516020016116a9929190612838565b6040516020818303038152906040525b915050919050565b6116cb838361180d565b6116d86000848484611495565b611717576040517f08c379a000000000000000000000000000000000000000000000000000000000815260040161170e906127dc565b60405180910390fd5b505050565b6000808273ffffffffffffffffffffffffffffffffffffffff163b119050919050565b60606000600161174e84611a2a565b01905060008167ffffffffffffffff81111561176d5761176c611f49565b5b6040519080825280601f01601f19166020018201604052801561179f5781602001600182028036833780820191505090505b509050600082602001820190505b600115611802578080600190039150507f3031323334353637383961626364656600000000000000000000000000000000600a86061a8153600a85816117f6576117f5612ce6565b5b049450600085036117ad575b819350505050919050565b600073ffffffffffffffffffffffffffffffffffffffff168273ffffffffffffffffffffffffffffffffffffffff160361187c576040517f08c379a000000000000000000000000000000000000000000000000000000000815260040161187390612d61565b60405180910390fd5b61188581611328565b156118c5576040517f08c379a00000000000000000000000000000000000000000000000000000000081526004016118bc90612dcd565b60405180910390fd5b6118d3600083836001611369565b6118dc81611328565b1561191c576040517f08c379a000000000000000000000000000000000000000000000000000000000815260040161191390612dcd565b60405180910390fd5b6001600360008473ffffffffffffffffffffffffffffffffffffffff1673ffffffffffffffffffffffffffffffffffffffff16815260200190815260200160002060008282540192505081905550816002600083815260200190815260200160002060006101000a81548173ffffffffffffffffffffffffffffffffffffffff021916908373ffffffffffffffffffffffffffffffffffffffff160217905550808273ffffffffffffffffffffffffffffffffffffffff16600073ffffffffffffffffffffffffffffffffffffffff167fddf252ad1be2c89b69c2b068fc378daa952ba7f163c4a11628f55a4df523b3ef60405160405180910390a4611a2660008383600161148f565b5050565b600080600090507a184f03e93ff9f4daa797ed6e38ed64bf6a1f0100000000000000008310611a88577a184f03e93ff9f4daa797ed6e38ed64bf6a1f0100000000000000008381611a7e57611a7d612ce6565b5b0492506040810190505b6d04ee2d6d415b85acef81000000008310611ac5576d04ee2d6d415b85acef81000000008381611abb57611aba612ce6565b5b0492506020810190505b662386f26fc100008310611af457662386f26fc100008381611aea57611ae9612ce6565b5b0492506010810190505b6305f5e1008310611b1d576305f5e1008381611b1357611b12612ce6565b5b0492506008810190505b6127108310611b42576127108381611b3857611b37612ce6565b5b0492506004810190505b60648310611b655760648381611b5b57611b5a612ce6565b5b0492506002810190505b600a8310611b74576001810190505b80915050919050565b6000604051905090565b600080fd5b600080fd5b60007fffffffff0000000000000000000000000000000000000000000000000000000082169050919050565b611bc681611b91565b8114611bd157600080fd5b50565b600081359050611be381611bbd565b92915050565b600060208284031215611bff57611bfe611b87565b5b6000611c0d84828501611bd4565b91505092915050565b60008115159050919050565b611c2b81611c16565b82525050565b6000602082019050611c466000830184611c22565b92915050565b600081519050919050565b600082825260208201905092915050565b60005b83811015611c86578082015181840152602081019050611c6b565b60008484015250505050565b6000601f19601f8301169050919050565b6000611cae82611c4c565b611cb88185611c57565b9350611cc8818560208601611c68565b611cd181611c92565b840191505092915050565b60006020820190508181036000830152611cf68184611ca3565b905092915050565b6000819050919050565b611d1181611cfe565b8114611d1c57600080fd5b50565b600081359050611d2e81611d08565b92915050565b600060208284031215611d4a57611d49611b87565b5b6000611d5884828501611d1f565b91505092915050565b600073ffffffffffffffffffffffffffffffffffffffff82169050919050565b6000611d8c82611d61565b9050919050565b611d9c81611d81565b82525050565b6000602082019050611db76000830184611d93565b92915050565b611dc681611d81565b8114611dd157600080fd5b50565b600081359050611de381611dbd565b92915050565b60008060408385031215611e0057611dff611b87565b5b6000611e0e85828601611dd4565b9250506020611e1f85828601611d1f565b9150509250929050565b600080600060608486031215611e4257611e41611b87565b5b6000611e5086828701611dd4565b9350506020611e6186828701611dd4565b9250506040611e7286828701611d1f565b9150509250925092565b600060208284031215611e9257611e91611b87565b5b6000611ea084828501611dd4565b91505092915050565b611eb281611cfe565b82525050565b6000602082019050611ecd6000830184611ea9565b92915050565b611edc81611c16565b8114611ee757600080fd5b50565b600081359050611ef981611ed3565b92915050565b60008060408385031215611f1657611f15611b87565b5b6000611f2485828601611dd4565b9250506020611f3585828601611eea565b9150509250929050565b600080fd5b600080fd5b7f4e487b7100000000000000000000000000000000000000000000000000000000600052604160045260246000fd5b611f8182611c92565b810181811067ffffffffffffffff82111715611fa057611f9f611f49565b5b80604052505050565b6000611fb3611b7d565b9050611fbf8282611f78565b919050565b600067ffffffffffffffff821115611fdf57611fde611f49565b5b611fe882611c92565b9050602081019050919050565b82818337600083830152505050565b600061201761201284611fc4565b611fa9565b90508281526020810184848401111561203357612032611f44565b5b61203e848285611ff5565b509392505050565b600082601f83011261205b5761205a611f3f565b5b813561206b848260208601612004565b91505092915050565b6000806000806080858703121561208e5761208d611b87565b5b600061209c87828801611dd4565b94505060206120ad87828801611dd4565b93505060406120be87828801611d1f565b925050606085013567ffffffffffffffff8111156120df576120de611b8c565b5b6120eb87828801612046565b91505092959194509250565b600067ffffffffffffffff82111561211257612111611f49565b5b61211b82611c92565b9050602081019050919050565b600061213b612136846120f7565b611fa9565b90508281526020810184848401111561215757612156611f44565b5b612162848285611ff5565b509392505050565b600082601f83011261217f5761217e611f3f565b5b813561218f848260208601612128565b91505092915050565b600080604083850312156121af576121ae611b87565b5b60006121bd85828601611dd4565b925050602083013567ffffffffffffffff8111156121de576121dd611b8c565b5b6121ea8582860161216a565b9150509250929050565b6000806040838503121561220b5761220a611b87565b5b600061221985828601611dd4565b925050602061222a85828601611dd4565b9150509250929050565b7f4e487b7100000000000000000000000000000000000000000000000000000000600052602260045260246000fd5b6000600282049050600182168061227b57607f821691505b60208210810361228e5761228d612234565b5b50919050565b7f4552433732313a20617070726f76616c20746f2063757272656e74206f776e6560008201527f7200000000000000000000000000000000000000000000000000000000000000602082015250565b60006122f0602183611c57565b91506122fb82612294565b604082019050919050565b6000602082019050818103600083015261231f816122e3565b9050919050565b7f4552433732313a20617070726f76652063616c6c6572206973206e6f7420746f60008201527f6b656e206f776e6572206f7220617070726f76656420666f7220616c6c000000602082015250565b6000612382603d83611c57565b915061238d82612326565b604082019050919050565b600060208201905081810360008301526123b181612375565b9050919050565b7f4552433732313a2063616c6c6572206973206e6f7420746f6b656e206f776e6560008201527f72206f7220617070726f76656400000000000000000000000000000000000000602082015250565b6000612414602d83611c57565b915061241f826123b8565b604082019050919050565b6000602082019050818103600083015261244381612407565b9050919050565b7f4552433732313a20696e76616c696420746f6b656e2049440000000000000000600082015250565b6000612480601883611c57565b915061248b8261244a565b602082019050919050565b600060208201905081810360008301526124af81612473565b9050919050565b7f4552433732313a2061646472657373207a65726f206973206e6f74206120766160008201527f6c6964206f776e65720000000000000000000000000000000000000000000000602082015250565b6000612512602983611c57565b915061251d826124b6565b604082019050919050565b6000602082019050818103600083015261254181612505565b9050919050565b7f4e6f7420656e6f756768204554482073656e743b20636865636b20707269636560008201527f2100000000000000000000000000000000000000000000000000000000000000602082015250565b60006125a4602183611c57565b91506125af82612548565b604082019050919050565b600060208201905081810360008301526125d381612597565b9050919050565b7f4552433732313a207472616e736665722066726f6d20696e636f72726563742060008201527f6f776e6572000000000000000000000000000000000000000000000000000000602082015250565b6000612636602583611c57565b9150612641826125da565b604082019050919050565b6000602082019050818103600083015261266581612629565b9050919050565b7f4552433732313a207472616e7366657220746f20746865207a65726f2061646460008201527f7265737300000000000000000000000000000000000000000000000000000000602082015250565b60006126c8602483611c57565b91506126d38261266c565b604082019050919050565b600060208201905081810360008301526126f7816126bb565b9050919050565b7f4552433732313a20617070726f766520746f2063616c6c657200000000000000600082015250565b6000612734601983611c57565b915061273f826126fe565b602082019050919050565b6000602082019050818103600083015261276381612727565b9050919050565b7f4552433732313a207472616e7366657220746f206e6f6e20455243373231526560008201527f63656976657220696d706c656d656e7465720000000000000000000000000000602082015250565b60006127c6603283611c57565b91506127d18261276a565b604082019050919050565b600060208201905081810360008301526127f5816127b9565b9050919050565b600081905092915050565b600061281282611c4c565b61281c81856127fc565b935061282c818560208601611c68565b80840191505092915050565b60006128448285612807565b91506128508284612807565b91508190509392505050565b7f45524337323155524953746f726167653a2055524920736574206f66206e6f6e60008201527f6578697374656e7420746f6b656e000000000000000000000000000000000000602082015250565b60006128b8602e83611c57565b91506128c38261285c565b604082019050919050565b600060208201905081810360008301526128e7816128ab565b9050919050565b60008190508160005260206000209050919050565b60006020601f8301049050919050565b600082821b905092915050565b6000600883026129507fffffffffffffffffffffffffffffffffffffffffffffffffffffffffffffffff82612913565b61295a8683612913565b95508019841693508086168417925050509392505050565b6000819050919050565b600061299761299261298d84611cfe565b612972565b611cfe565b9050919050565b6000819050919050565b6129b18361297c565b6129c56129bd8261299e565b848454612920565b825550505050565b600090565b6129da6129cd565b6129e58184846129a8565b505050565b5b81811015612a09576129fe6000826129d2565b6001810190506129eb565b5050565b601f821115612a4e57612a1f816128ee565b612a2884612903565b81016020851015612a37578190505b612a4b612a4385612903565b8301826129ea565b50505b505050565b600082821c905092915050565b6000612a7160001984600802612a53565b1980831691505092915050565b6000612a8a8383612a60565b9150826002028217905092915050565b612aa382611c4c565b67ffffffffffffffff811115612abc57612abb611f49565b5b612ac68254612263565b612ad1828285612a0d565b600060209050601f831160018114612b045760008415612af2578287015190505b612afc8582612a7e565b865550612b64565b601f198416612b12866128ee565b60005b82811015612b3a57848901518255600182019150602085019450602081019050612b15565b86831015612b575784890151612b53601f891682612a60565b8355505b6001600288020188555050505b505050505050565b7f4e487b7100000000000000000000000000000000000000000000000000000000600052601160045260246000fd5b6000612ba682611cfe565b9150612bb183611cfe565b9250828203905081811115612bc957612bc8612b6c565b5b92915050565b6000612bda82611cfe565b9150612be583611cfe565b9250828201905080821115612bfd57612bfc612b6c565b5b92915050565b600081519050919050565b600082825260208201905092915050565b6000612c2a82612c03565b612c348185612c0e565b9350612c44818560208601611c68565b612c4d81611c92565b840191505092915050565b6000608082019050612c6d6000830187611d93565b612c7a6020830186611d93565b612c876040830185611ea9565b8181036060830152612c998184612c1f565b905095945050505050565b600081519050612cb381611bbd565b92915050565b600060208284031215612ccf57612cce611b87565b5b6000612cdd84828501612ca4565b91505092915050565b7f4e487b7100000000000000000000000000000000000000000000000000000000600052601260045260246000fd5b7f4552433732313a206d696e7420746f20746865207a65726f2061646472657373600082015250565b6000612d4b602083611c57565b9150612d5682612d15565b602082019050919050565b60006020820190508181036000830152612d7a81612d3e565b9050919050565b7f4552433732313a20746f6b656e20616c7265616479206d696e74656400000000600082015250565b6000612db7601c83611c57565b9150612dc282612d81565b602082019050919050565b60006020820190508181036000830152612de681612daa565b905091905056fea264697066735822122026a82a02ead34e29fe1ef4e9dc8f1fabf931be8a106f8b6eefa4c982474a0bde64736f6c63430008110033",
  "linkReferences": {},
  "deployedLinkReferences": {}
}